{
  "contractName": "Voting",
  "abi": [
    {
      "anonymous": false,
      "inputs": [
        {
          "indexed": false,
          "internalType": "uint256",
          "name": "aadhar",
          "type": "uint256"
        },
        {
          "indexed": false,
          "internalType": "string",
          "name": "name",
          "type": "string"
        },
        {
          "indexed": false,
          "internalType": "string",
          "name": "state",
          "type": "string"
        },
        {
          "indexed": false,
          "internalType": "string",
          "name": "district",
          "type": "string"
        },
        {
          "indexed": false,
          "internalType": "string",
          "name": "city",
          "type": "string"
        }
      ],
      "name": "CandidateAdded",
      "type": "event"
    },
    {
      "anonymous": false,
      "inputs": [
        {
          "indexed": false,
          "internalType": "string",
          "name": "voterID",
          "type": "string"
        },
        {
          "indexed": false,
          "internalType": "uint256",
          "name": "candidateAadhar",
          "type": "uint256"
        },
        {
          "indexed": false,
          "internalType": "uint256",
          "name": "newVoteCount",
          "type": "uint256"
        }
      ],
      "name": "VoteCasted",
      "type": "event"
    },
    {
      "inputs": [
        {
          "internalType": "uint256",
          "name": "",
          "type": "uint256"
        }
      ],
      "name": "candidateIds",
      "outputs": [
        {
          "internalType": "uint256",
          "name": "",
          "type": "uint256"
        }
      ],
      "stateMutability": "view",
      "type": "function",
      "constant": true
    },
    {
      "inputs": [
        {
          "internalType": "uint256",
          "name": "",
          "type": "uint256"
        }
      ],
      "name": "candidateVotes",
      "outputs": [
        {
          "internalType": "uint256",
          "name": "",
          "type": "uint256"
        }
      ],
      "stateMutability": "view",
      "type": "function",
      "constant": true
    },
    {
      "inputs": [
        {
          "internalType": "uint256",
          "name": "",
          "type": "uint256"
        }
      ],
      "name": "candidates",
      "outputs": [
        {
          "internalType": "string",
          "name": "name",
          "type": "string"
        },
        {
          "internalType": "string",
          "name": "state",
          "type": "string"
        },
        {
          "internalType": "string",
          "name": "district",
          "type": "string"
        },
        {
          "internalType": "string",
          "name": "city",
          "type": "string"
        },
        {
          "internalType": "bool",
          "name": "exists",
          "type": "bool"
        }
      ],
      "stateMutability": "view",
      "type": "function",
      "constant": true
    },
    {
      "inputs": [
        {
          "internalType": "string",
          "name": "",
          "type": "string"
        }
      ],
      "name": "hasVoted",
      "outputs": [
        {
          "internalType": "bool",
          "name": "",
          "type": "bool"
        }
      ],
      "stateMutability": "view",
      "type": "function",
      "constant": true
    },
    {
      "inputs": [
        {
          "internalType": "uint256",
          "name": "_aadhar",
          "type": "uint256"
        },
        {
          "internalType": "string",
          "name": "_name",
          "type": "string"
        },
        {
          "internalType": "string",
          "name": "_state",
          "type": "string"
        },
        {
          "internalType": "string",
          "name": "_district",
          "type": "string"
        },
        {
          "internalType": "string",
          "name": "_city",
          "type": "string"
        }
      ],
      "name": "addCandidate",
      "outputs": [],
      "stateMutability": "nonpayable",
      "type": "function"
    },
    {
      "inputs": [
        {
          "internalType": "string",
          "name": "_voterID",
          "type": "string"
        },
        {
          "internalType": "uint256",
          "name": "_candidateAadhar",
          "type": "uint256"
        }
      ],
      "name": "vote",
      "outputs": [],
      "stateMutability": "nonpayable",
      "type": "function"
    },
    {
      "inputs": [],
      "name": "getResults",
      "outputs": [
        {
          "internalType": "uint256[]",
          "name": "",
          "type": "uint256[]"
        },
        {
          "internalType": "uint256[]",
          "name": "",
          "type": "uint256[]"
        }
      ],
      "stateMutability": "view",
      "type": "function",
      "constant": true
    },
    {
      "inputs": [
        {
          "internalType": "uint256",
          "name": "_aadhar",
          "type": "uint256"
        }
      ],
      "name": "getCandidate",
      "outputs": [
        {
          "internalType": "string",
          "name": "name",
          "type": "string"
        },
        {
          "internalType": "string",
          "name": "state",
          "type": "string"
        },
        {
          "internalType": "string",
          "name": "district",
          "type": "string"
        },
        {
          "internalType": "string",
          "name": "city",
          "type": "string"
        },
        {
          "internalType": "uint256",
          "name": "votes",
          "type": "uint256"
        }
      ],
      "stateMutability": "view",
      "type": "function",
      "constant": true
    }
  ],
  "bytecode": "0x608060405234801561001057600080fd5b506116c1806100206000396000f3fe608060405234801561001057600080fd5b50600436106100885760003560e01c806339bfeae31161005b57806339bfeae3146101415780634717f97c14610171578063a638580314610190578063f49e323e146101ac57610088565b8063030161301461008d578063119aeab7146100bd5780633477ee2e146100d957806335b8e8201461010d575b600080fd5b6100a760048036038101906100a29190610e50565b6101dc565b6040516100b49190611362565b60405180910390f35b6100d760048036038101906100d29190610e79565b610200565b005b6100f360048036038101906100ee9190610e50565b6103a5565b6040516101049594939291906111c6565b60405180910390f35b61012760048036038101906101229190610e50565b610608565b604051610138959493929190611235565b60405180910390f35b61015b60048036038101906101569190610dbb565b610932565b60405161016891906111ab565b60405180910390f35b610179610968565b604051610187929190611174565b60405180910390f35b6101aa60048036038101906101a59190610dfc565b610b02565b005b6101c660048036038101906101c19190610e50565b610c83565b6040516101d39190611362565b60405180910390f35b600381815481106101ec57600080fd5b906000526020600020016000915090505481565b60008086815260200190815260200160002060040160009054906101000a900460ff1615610263576040517f08c379a000000000000000000000000000000000000000000000000000000000815260040161025a90611302565b60405180910390fd5b6040518060a001604052808581526020018481526020018381526020018281526020016001151581525060008087815260200190815260200160002060008201518160000190805190602001906102bb929190610c9b565b5060208201518160010190805190602001906102d8929190610c9b565b5060408201518160020190805190602001906102f5929190610c9b565b506060820151816003019080519060200190610312929190610c9b565b5060808201518160040160006101000a81548160ff02191690831515021790555090505060038590806001815401808255809150506001900390600052602060002001600090919091909150557f1908f3f8bf9e04cbee388cdea6025f92e954127dec768c7e092afb158071f0d0858585858560405161039695949392919061137d565b60405180910390a15050505050565b60006020528060005260406000206000915090508060000180546103c89061155b565b80601f01602080910402602001604051908101604052809291908181526020018280546103f49061155b565b80156104415780601f1061041657610100808354040283529160200191610441565b820191906000526020600020905b81548152906001019060200180831161042457829003601f168201915b5050505050908060010180546104569061155b565b80601f01602080910402602001604051908101604052809291908181526020018280546104829061155b565b80156104cf5780601f106104a4576101008083540402835291602001916104cf565b820191906000526020600020905b8154815290600101906020018083116104b257829003601f168201915b5050505050908060020180546104e49061155b565b80601f01602080910402602001604051908101604052809291908181526020018280546105109061155b565b801561055d5780601f106105325761010080835404028352916020019161055d565b820191906000526020600020905b81548152906001019060200180831161054057829003601f168201915b5050505050908060030180546105729061155b565b80601f016020809104026020016040519081016040528092919081815260200182805461059e9061155b565b80156105eb5780601f106105c0576101008083540402835291602001916105eb565b820191906000526020600020905b8154815290600101906020018083116105ce57829003601f168201915b5050505050908060040160009054906101000a900460ff16905085565b606080606080600080600087815260200190815260200160002060040160009054906101000a900460ff16610672576040517f08c379a0000000000000000000000000000000000000000000000000000000008152600401610669906112e2565b60405180910390fd5b60008060008881526020019081526020016000206040518060a00160405290816000820180546106a19061155b565b80601f01602080910402602001604051908101604052809291908181526020018280546106cd9061155b565b801561071a5780601f106106ef5761010080835404028352916020019161071a565b820191906000526020600020905b8154815290600101906020018083116106fd57829003601f168201915b505050505081526020016001820180546107339061155b565b80601f016020809104026020016040519081016040528092919081815260200182805461075f9061155b565b80156107ac5780601f10610781576101008083540402835291602001916107ac565b820191906000526020600020905b81548152906001019060200180831161078f57829003601f168201915b505050505081526020016002820180546107c59061155b565b80601f01602080910402602001604051908101604052809291908181526020018280546107f19061155b565b801561083e5780601f106108135761010080835404028352916020019161083e565b820191906000526020600020905b81548152906001019060200180831161082157829003601f168201915b505050505081526020016003820180546108579061155b565b80601f01602080910402602001604051908101604052809291908181526020018280546108839061155b565b80156108d05780601f106108a5576101008083540402835291602001916108d0565b820191906000526020600020905b8154815290600101906020018083116108b357829003601f168201915b505050505081526020016004820160009054906101000a900460ff16151515158152505090508060000151816020015182604001518360600151600160008c815260200190815260200160002054955095509550955095505091939590929450565b6002818051602081018201805184825260208301602085012081835280955050505050506000915054906101000a900460ff1681565b606080600060038054905067ffffffffffffffff8111156109b2577f4e487b7100000000000000000000000000000000000000000000000000000000600052604160045260246000fd5b6040519080825280602002602001820160405280156109e05781602001602082028036833780820191505090505b50905060005b600380549050811015610aa3576001600060038381548110610a31577f4e487b7100000000000000000000000000000000000000000000000000000000600052603260045260246000fd5b9060005260206000200154815260200190815260200160002054828281518110610a84577f4e487b7100000000000000000000000000000000000000000000000000000000600052603260045260246000fd5b6020026020010181815250508080610a9b9061158d565b9150506109e6565b5060038181805480602002602001604051908101604052809291908181526020018280548015610af257602002820191906000526020600020905b815481526020019060010190808311610ade575b5050505050915092509250509091565b600282604051610b12919061115d565b908152602001604051809103902060009054906101000a900460ff1615610b6e576040517f08c379a0000000000000000000000000000000000000000000000000000000008152600401610b6590611342565b60405180910390fd5b60008082815260200190815260200160002060040160009054906101000a900460ff16610bd0576040517f08c379a0000000000000000000000000000000000000000000000000000000008152600401610bc790611322565b60405180910390fd5b60018060008381526020019081526020016000206000828254610bf391906114ad565b925050819055506001600283604051610c0c919061115d565b908152602001604051809103902060006101000a81548160ff0219169083151502179055507f524c50ca688429a224d3145402c7a95b5248bd6fc91b771a18e321c3aafaf24482826001600085815260200190815260200160002054604051610c77939291906112a4565b60405180910390a15050565b60016020528060005260406000206000915090505481565b828054610ca79061155b565b90600052602060002090601f016020900481019282610cc95760008555610d10565b82601f10610ce257805160ff1916838001178555610d10565b82800160010185558215610d10579182015b82811115610d0f578251825591602001919060010190610cf4565b5b509050610d1d9190610d21565b5090565b5b80821115610d3a576000816000905550600101610d22565b5090565b6000610d51610d4c8461141d565b6113ec565b905082815260208101848484011115610d6957600080fd5b610d74848285611519565b509392505050565b600082601f830112610d8d57600080fd5b8135610d9d848260208601610d3e565b91505092915050565b600081359050610db581611674565b92915050565b600060208284031215610dcd57600080fd5b600082013567ffffffffffffffff811115610de757600080fd5b610df384828501610d7c565b91505092915050565b60008060408385031215610e0f57600080fd5b600083013567ffffffffffffffff811115610e2957600080fd5b610e3585828601610d7c565b9250506020610e4685828601610da6565b9150509250929050565b600060208284031215610e6257600080fd5b6000610e7084828501610da6565b91505092915050565b600080600080600060a08688031215610e9157600080fd5b6000610e9f88828901610da6565b955050602086013567ffffffffffffffff811115610ebc57600080fd5b610ec888828901610d7c565b945050604086013567ffffffffffffffff811115610ee557600080fd5b610ef188828901610d7c565b935050606086013567ffffffffffffffff811115610f0e57600080fd5b610f1a88828901610d7c565b925050608086013567ffffffffffffffff811115610f3757600080fd5b610f4388828901610d7c565b9150509295509295909350565b6000610f5c838361113f565b60208301905092915050565b6000610f738261145d565b610f7d8185611480565b9350610f888361144d565b8060005b83811015610fb9578151610fa08882610f50565b9750610fab83611473565b925050600181019050610f8c565b5085935050505092915050565b610fcf81611503565b82525050565b6000610fe082611468565b610fea8185611491565b9350610ffa818560208601611528565b61100381611663565b840191505092915050565b600061101982611468565b61102381856114a2565b9350611033818560208601611528565b80840191505092915050565b600061104c601383611491565b91507f43616e646964617465206e6f7420666f756e64000000000000000000000000006000830152602082019050919050565b600061108c601883611491565b91507f43616e64696461746520616c72656164792065786973747300000000000000006000830152602082019050919050565b60006110cc601883611491565b91507f43616e64696461746520646f6573206e6f7420657869737400000000000000006000830152602082019050919050565b600061110c601783611491565b91507f566f7465722068617320616c726561647920766f7465640000000000000000006000830152602082019050919050565b6111488161150f565b82525050565b6111578161150f565b82525050565b6000611169828461100e565b915081905092915050565b6000604082019050818103600083015261118e8185610f68565b905081810360208301526111a28184610f68565b90509392505050565b60006020820190506111c06000830184610fc6565b92915050565b600060a08201905081810360008301526111e08188610fd5565b905081810360208301526111f48187610fd5565b905081810360408301526112088186610fd5565b9050818103606083015261121c8185610fd5565b905061122b6080830184610fc6565b9695505050505050565b600060a082019050818103600083015261124f8188610fd5565b905081810360208301526112638187610fd5565b905081810360408301526112778186610fd5565b9050818103606083015261128b8185610fd5565b905061129a608083018461114e565b9695505050505050565b600060608201905081810360008301526112be8186610fd5565b90506112cd602083018561114e565b6112da604083018461114e565b949350505050565b600060208201905081810360008301526112fb8161103f565b9050919050565b6000602082019050818103600083015261131b8161107f565b9050919050565b6000602082019050818103600083015261133b816110bf565b9050919050565b6000602082019050818103600083015261135b816110ff565b9050919050565b6000602082019050611377600083018461114e565b92915050565b600060a082019050611392600083018861114e565b81810360208301526113a48187610fd5565b905081810360408301526113b88186610fd5565b905081810360608301526113cc8185610fd5565b905081810360808301526113e08184610fd5565b90509695505050505050565b6000604051905081810181811067ffffffffffffffff8211171561141357611412611634565b5b8060405250919050565b600067ffffffffffffffff82111561143857611437611634565b5b601f19601f8301169050602081019050919050565b6000819050602082019050919050565b600081519050919050565b600081519050919050565b6000602082019050919050565b600082825260208201905092915050565b600082825260208201905092915050565b600081905092915050565b60006114b88261150f565b91506114c38361150f565b9250827fffffffffffffffffffffffffffffffffffffffffffffffffffffffffffffffff038211156114f8576114f76115d6565b5b828201905092915050565b60008115159050919050565b6000819050919050565b82818337600083830152505050565b60005b8381101561154657808201518184015260208101905061152b565b83811115611555576000848401525b50505050565b6000600282049050600182168061157357607f821691505b6020821081141561158757611586611605565b5b50919050565b60006115988261150f565b91507fffffffffffffffffffffffffffffffffffffffffffffffffffffffffffffffff8214156115cb576115ca6115d6565b5b600182019050919050565b7f4e487b7100000000000000000000000000000000000000000000000000000000600052601160045260246000fd5b7f4e487b7100000000000000000000000000000000000000000000000000000000600052602260045260246000fd5b7f4e487b7100000000000000000000000000000000000000000000000000000000600052604160045260246000fd5b6000601f19601f8301169050919050565b61167d8161150f565b811461168857600080fd5b5056fea264697066735822122018385be1bcc1bebacd6e58061e9f19ad4e0c30c5e78aecd4861e15d3da1b8f1164736f6c63430008000033",
  "immutableReferences": {},
  "source": "// SPDX-License-Identifier: MIT\r\npragma solidity ^0.8.0;\r\n\r\ncontract Voting {\r\n    struct Candidate {\r\n        string name;\r\n        string state;\r\n        string district;\r\n        string city;\r\n        bool exists;\r\n    }\r\n\r\n    struct Vote {\r\n        string voterID;\r\n        uint256 candidateAadhar;\r\n        uint256 voteCount;\r\n    }\r\n\r\n    mapping(uint256 => Candidate) public candidates; // Aadhar -> Candidate Info\r\n    mapping(uint256 => uint256) public candidateVotes; // Aadhar -> Vote Count\r\n    mapping(string => bool) public hasVoted; // Voter ID -> Has voted or not\r\n    uint256[] public candidateIds; // List of all Aadhar IDs\r\n\r\n    event CandidateAdded(uint256 aadhar, string name, string state, string district, string city);\r\n    event VoteCasted(string voterID, uint256 candidateAadhar, uint256 newVoteCount);\r\n\r\n    //  Add a candidate\r\n    function addCandidate(\r\n        uint256 _aadhar,\r\n        string memory _name,\r\n        string memory _state,\r\n        string memory _district,\r\n        string memory _city\r\n    ) public {\r\n        require(!candidates[_aadhar].exists, \"Candidate already exists\");\r\n\r\n        candidates[_aadhar] = Candidate(_name, _state, _district, _city, true);\r\n        candidateIds.push(_aadhar);\r\n\r\n        emit CandidateAdded(_aadhar, _name, _state, _district, _city);\r\n    }\r\n\r\n    //  Cast vote\r\n    function vote(string memory _voterID, uint256 _candidateAadhar) public {\r\n        require(!hasVoted[_voterID], \"Voter has already voted\");\r\n        require(candidates[_candidateAadhar].exists, \"Candidate does not exist\");\r\n\r\n        candidateVotes[_candidateAadhar] += 1;\r\n        hasVoted[_voterID] = true;\r\n\r\n        emit VoteCasted(_voterID, _candidateAadhar, candidateVotes[_candidateAadhar]);\r\n    }\r\n\r\n    //  Get all results\r\n    function getResults() public view returns (uint256[] memory, uint256[] memory) {\r\n        uint256[] memory votes = new uint256[](candidateIds.length);\r\n        for (uint256 i = 0; i < candidateIds.length; i++) {\r\n            votes[i] = candidateVotes[candidateIds[i]];\r\n        }\r\n        return (candidateIds, votes);\r\n    }\r\n\r\n    //  Get candidate details + vote count\r\n    function getCandidate(uint256 _aadhar) \r\n        public \r\n        view \r\n        returns (\r\n            string memory name,\r\n            string memory state,\r\n            string memory district,\r\n            string memory city,\r\n            uint256 votes\r\n        ) \r\n    {\r\n        require(candidates[_aadhar].exists, \"Candidate not found\");\r\n        Candidate memory c = candidates[_aadhar];\r\n        return (c.name, c.state, c.district, c.city, candidateVotes[_aadhar]);\r\n    }\r\n}\r\n",
  "sourcePath": "D:\\Blockchain-Based-Voting-System\\Voting_frontend\\contracts\\Voting.sol",
  "compiler": {
    "name": "solc",
    "version": "0.8.0+commit.c7dfd78e.Emscripten.clang"
  },
  "schemaVersion": "3.4.16",
  "updatedAt": "2025-04-11T16:24:44.045Z",
  "networkType": "ethereum",
  "devdoc": {
    "kind": "dev",
    "methods": {},
    "version": 1
  },
  "userdoc": {
    "kind": "user",
    "methods": {},
    "version": 1
  }
}